:020000040800F2
:1000000030070020CD010008C5210008C51F0008E9
:10001000C1210008D5020008F122000800000000FC
:10002000000000000000000000000000CD210008DA
:10003000D902000800000000C9210008D1210008F1
:10004000E7010008E7010008E7010008E7010008F0
:10005000E7010008E7010008E7010008E7010008E0
:10006000E7010008E7010008E7010008E7010008D0
:10007000E7010008E7010008E7010008E7010008C0
:10008000E7010008E7010008E7010008E7010008B0
:10009000E7010008E7010008E7010008E7010008A0
:1000A000E7010008E7010008E7010008E701000890
:1000B000E7010008E7010008E7010008E701000880
:1000C000E7010008E7010008E7010008E701000870
:1000D000E7010008E7010008E7010008E701000860
:1000E000E7010008E7010008E7010008E701000850
:1000F000E7010008E7010008E7010008E701000840
:10010000E7010008E7010008E7010008E70100082F
:10011000E7010008D9210008E7010008E70100080D
:10012000E7010008E7010008E7010008E70100080F
:1001300000F002F800F03AF80AA090E8000C8244BF
:100140008344AAF10107DA4501D100F02FF8AFF29C
:10015000090EBAE80F0013F0010F18BFFB1A43F0A5
:10016000010318471C2600003C260000103A24BF5B
:1001700078C878C1FAD8520724BF30C830C144BF0C
:1001800004680C607047000000230024002500264E
:10019000103A28BF78C1FBD8520728BF30C148BFEA
:1001A0000B6070471FB51FBD10B510BD00F058F8AB
:1001B0001146FFF7F7FF02F09DF800F076F803B460
:1001C000FFF7F2FF03BC00F07DF80000094880470C
:1001D00009480047FEE7FEE7FEE7FEE7FEE7FEE729
:1001E000FEE7FEE7FEE7FEE704480549054A064B41
:1001F00070470000D52100083101000830010020BF
:100200003007002030030020300300204FF00002B0
:1002100000B5134694469646203922BFA0E80C50FC
:10022000A0E80C50B1F12001BFF4F7AF090728BFD7
:10023000A0E80C5048BF0CC05DF804EB890028BF53
:1002400040F8042B08BF704748BF20F8022B11F07C
:10025000804F18BF00F8012B7047704770477047F8
:10026000754600F02BF8AE4605006946534620F06F
:100270000700854618B020B5FFF7B6FFBDE820405F
:100280004FF000064FF000074FF000084FF0000B52
:10029000AC46ACE8C009ACE8C009ACE8C009ACE8C1
:1002A000C00921F007018D46704710B50446AFF331
:1002B00000802046BDE81040FFF781BF004870472E
:1002C0001000002001491820ABBEFEE72600020006
:1002D00070470000FEE7000070470000EFF3108059
:1002E00072B600BFFEE700002DE9F04381B040F692
:1002F0000044C4F2010420464FF4806100F0DAFAB1
:10030000054620464FF4006100F0D4FA800140EA2F
:10031000C51520464FF4805100F0CCFA45EA40154F
:1003200020464FF4005100F0C5FA45EA001520467A
:100330004FF4804100F0BEFA45EAC00520464FF474
:10034000004100F0B7FA45EA80052046012100F09F
:10035000B1FA45EA40052046022100F0ABFA2843F5
:1003600040F27009C1B2C2F20009802989F8000088
:1003700000F28680FC20DFE811F08B0095008D00F4
:100380008D00810091008100810089009100910021
:1003900091008900910091009100970091009100D7
:1003A000910091009100910091008B0091009100CB
:1003B00091009100910091009100870091009100BF
:1003C00091009100910091009100910091009100A5
:1003D000910091009100910091008700910091009F
:1003E0009100910091009100910091009100910085
:1003F000910091009100910091008F009100910077
:100400009100910091009100910091009100910064
:100410009100910091009100910091009100910054
:100420009100910091009100910091009100910044
:10043000910091009100910091008F009100910036
:100440009100910091009100910091009100910024
:100450009100910091009100910091009100910014
:100460009100910091009100910091009100910004
:10047000910091009100910091009800022014E0F9
:10048000C02903D0E02909D1FE200EE001200CE0B4
:1004900000200AE0032008E0FD2006E099F80100B2
:1004A00005E000BF042000E0FF2089F8010001F012
:1004B000F5FF0446C9F80400D9F80800D9E9056138
:1004C000D9F81C8001F088FF0546C9F808002046CD
:1004D000314602F0C3F8D9F820100646C9F80C00DE
:1004E000284601F0EFFF07464046214601F0EAFFAB
:1004F000394601F071FFD9F8241007460846314605
:1005000001F0E0FF394601F067FF09F1100131C148
:1005100001B0BDE8F0830000014690F821000228F8
:1005200016D10868D1E90FC3026822F00E020260FA
:10053000026822F001020260012000FA03F2CCF806
:10054000042081F821000020002281F8202070473B
:10055000042088630120002281F8202070470000D9
:1005600080B590F82110022928D1026840F2040CCD
:100570001368C4F2020C23F00E03136013680CF12D
:100580007C018A4223F0010111601BD940F208412D
:10059000C4F202018A4249D040F21C41C4F2020175
:1005A0008A4247D040F23041C4F202018A4245D12A
:1005B0004FF48073CCF800345DE000BF0421816308
:1005C000012080BD4321C4F202018A420EDD6B216D
:1005D000C4F202018A421BDC4421C4F202018A42B5
:1005E0003CD05821C4F202018A4233E00821C4F20F
:1005F00002018A4236D01C21C4F202018A4237D05D
:100600003021C4F202018A4224D14FF4807230E0DA
:100610006C21C4F202018A4226D08021C4F2020178
:100620008A4217D14FF0807223E000BF0123CCF83B
:10063000003420E01023CCF800341CE00CF5886175
:100640004FF480338A4208BF4FF48053CCF8003413
:1006500011E000BF4FF480320BE000BF4FF4805236
:1006600007E000BF012204E04FF4801201E000BF68
:100670001022CCF80020012180F82110426B0021CB
:1006800080F820100AB190470021084680BD000084
:10069000B0B5044600F014F9054640F20000C2F27D
:1006A00000000078611C18BF044400BF00F008F986
:1006B000401BA042FAD3B0BD2DE9F04F82B0D1F873
:1006C00000C0BCF1000F00F0F180A0F1804241F6C3
:1006D0000045A2F58432C4F2010540F2004E4FEA13
:1006E000B2240627A842C4F2010E08BF0527052C34
:1006F0004FF000044FF001084FF00F034FF0000AD5
:100700004FF0000B38BF4FEAB22700970AE000BF56
:10071000D1F800C00AF1010A3CFA0AF204F104041B
:1007200000F0C48008FA0AF91CEA090FF0D04E68FC
:100730004FF6FF72C1F21002964211DC122E55D80C
:10074000DFE806F0340A4448545454545454545482
:1007500054545454544C5000D1F80CB046E000BFEF
:100760004FF6FF72C1F2210296420FDC0022C1F265
:10077000110296421AD00022C1F21202964215D0FE
:100780000022C1F22102964210D02FE00022C1F2D5
:10079000220296420AD00022C1F23102964205D0CE
:1007A0000022C1F23202964220D100BF8A684AB1CB
:1007B000012A14BFC0F81490C0F810904FF0080B35
:1007C00014E000BF4FF0040B10E000BFCA6802F154
:1007D000080B0BE04FF0000B08E000BFCA6802F105
:1007E000040B03E0CA6802F10C0B00BF2246064668
:1007F000BAF1080F24BF203A0436376803FA02F52D
:10080000AF430BFA02F23A433260CA79D2067FF55F
:100810007FAF41F21807C4F202073A684FF6084367
:1008200042F001023A603A68CFF6FF7302F001022B
:100830000192019A2AF0030272440F25D75804F05E
:100840000C06B540AF43009D05FA06F63743D75076
:100850004E6840F20C45F202DEF8082054BF22EA4E
:10086000090242EA0902CEF80820C4F201052A680A
:10087000B70254BF22EA090242EA09022A60DEF8FE
:100880000420B70354BF22EA090242EA0902CEF863
:1008900004200F23DEF80020F70354BF22EA0902E8
:1008A00042EA0902CEF8002032E700BF02B0BDE8FC
:1008B000F08F00008068084018BF012070470000DA
:1008C00040F22810C2F200000068704740F20000B9
:1008D00040F22811C2F20000C2F2000100780A685A
:1008E000104408607047000080B542F20000C4F276
:1008F0000200016841F010010160032000F086F859
:100900000F2000F005F800F027F8002080BD00005F
:1009100070B540F20006C2F2000640F208013278DB
:10092000C2F200014FF47A730968B3FBF2F2044695
:10093000B1FBF2F1084600F05BFB0F2C4FF0010514
:1009400008D838B94FF0FF3021460022002500F0CA
:1009500031F87460284670BD82B041F21800C4F2CC
:100960000200016841F001010160016801F001012C
:1009700001910199416841F080514160406800F067
:1009800080500090009802B070470000002848BFD7
:100990007047C1B200F01F00012202FA00F04EF2CF
:1009A0000012CEF2000242EAD10121F003010860F8
:1009B0007047000010B54EF60C5CCEF2000CDCF86F
:1009C0000030C3F3022E8EF00704042C28BF042449
:1009D000BEF103034FF0FF3E0EFA04F438BF0023CC
:1009E000A14399400EFA03F39A43114300F00F021A
:1009F00000F160430901043A03F5644362440028AE
:100A000048BF02F10C03197010BD00004EF60C51E6
:100A1000CEF200010A684FF6FF031A4060F30A2283
:100A200042F0806040F0FD70086070472DE9F043AF
:100A300081B0002800F0858042F20008C4F202086C
:100A40000446D8F800000D4600F0070088420CD29A
:100A5000D8F8000020F007002843C8F80000D8F8B4
:100A6000000000F00700A8426BD1206841F20409A1
:100A70008107C4F2020917D5410705D5D9F800103E
:100A800041F4E061C9F80010010705D5D9F800105C
:100A900041F46051C9F80010D9F80010A26821F0A3
:100AA000F0011143C9F80010C00741D1D8F8000087
:100AB00000F00700A8420CD9D8F8000020F0070089
:100AC0002843C8F80000D8F8000000F00700A8424A
:100AD00037D12068410707D5D9F80010E26821F422
:100AE000E0611143C9F80010000708D5D9F80000EB
:100AF000216920F4605040EAC100C9F80000D9F82B
:100B0000002002F00C00082841F20020C0F27A0018
:100B100050D142F26073C2F38341C0F60003595CC6
:100B2000D2033BD440F60010C0F23D00484341E000
:100B3000606802280AD001282AD159F8041C8903C8
:100B400008D4012001B0BDE8F08300BF59F8041CAF
:100B50008901F6D5D9F8001021F003010843C9F83E
:100B60000000FFF7ADFE064641F28837D9F80000D5
:100B7000616800F00C00B0EB810F97D0FFF7A0FE8A
:100B8000801BB842F2D9032001B0BDE8F08300BF5A
:100B900059F8041C8907D4D5DCE700BFD9F8002038
:100BA00042F25E73C2F34042C0F600039A5C4843CF
:100BB000B0FBF2F0D9F8001042F24672C1F3031113
:100BC000C0F60002515C40F2080220FA01F140F246
:100BD0000400C2F200000068C2F200021160FFF7D8
:100BE00097FE002001B0BDE8F083000040F208004D
:100BF00041F20401C2F20000C4F202010068096877
:100C000042F25672C1F30221C0F60002515CC840A4
:100C10007047000040F2080041F20401C2F20000F7
:100C2000C4F202010068096842F25672C1F3C2219F
:100C3000C0F60002515CC840704700002DE9F04149
:100C400082B0002868D00446007841F20006C00750
:100C5000C4F2020625D0706800F00C0004281BD0F6
:100C6000706800F00C00082802D17068C00313D42B
:100C70006068002800F06881B0F5A02F00F07C814A
:100C8000B0F5803F00F07C81306820F48030306027
:100C9000306820F4802076E13068800301D56068F8
:100CA000D0B32078800718D5706810F00C0F07D0EB
:100CB000706800F00C0008286ED17068C0036BD417
:100CC0003068800702D52069012825D13068616924
:100CD00020F0F80040EAC1003060207800071FD4FF
:100CE0002078400732D4E56995B1706800F00C00B7
:100CF000082840F08F80012D0ED07068216A00F422
:100D000080328A4208D1616A00F47010884203D1AF
:100D1000002002B0BDE8F081012002B0BDE8F08102
:100D2000A069002862D00020C4F242200121C0F84E
:100D30008014FFF7C5FD0546706A800700F18C80BE
:100D4000FFF7BEFD401B0228F6D92AE1F06910F03A
:100D5000805808D1F06940F08050F061F06900F0EF
:100D600080500090009847F20007C4F200073868EE
:100D7000C00529D4386840F480703860FFF7A0FDC2
:100D8000054600BF3868C0051ED4FFF799FD401B1B
:100D90006428F7D905E100BF2069002840F200006F
:100DA000C4F2422000F0828001210160FFF788FD3B
:100DB000054600BF306880073FF588AFFFF780FD2C
:100DC000401B0228F6D9ECE0E068002800F08080A3
:100DD000052800F09780012800F09880306A20F004
:100DE00001003062306A20F0040092E00020C4F27A
:100DF00042200021C0F88014FFF762FD054600BFC5
:100E0000706A80077FF56CAFFFF75AFD401B022820
:100E1000F6D9C6E00027C4F2422700203866FFF763
:100E20004FFD022D05460BD13068800140F1BE8098
:100E3000FFF746FD401B02284FF00300F4D968E796
:100E4000306880017FF564AFFFF73AFD401B022850
:100E50004FF00300F4D95CE740F20800C2F2000052
:100E6000006844F6D351C1F26201A0FB0101480AB7
:100E7000019000BF00BF0198411E002801913FF47E
:100E80002FAF00BF0198411E002801913FF428AF09
:100E900000BF0198411E002801913FF421AF00BF1F
:100EA0000198411E00280191E4D119E70021016059
:100EB000FFF706FD054600BF306880077FF50DAFE0
:100EC000FFF7FEFC401B02284FF00300F4D920E797
:100ED000306A20F001003062306A20F00400306295
:100EE000FFF7EEFC054641F2883700BF306A800705
:100EF00020D5FFF7E5FC401BB8424FF00300F5D9C1
:100F000007E700BF306A40F004003062306A40F00A
:100F100001003062FFF7D4FC054641F2883700BF7C
:100F2000306A800706D4FFF7CBFC401BB842F7D9E4
:100F300037E000BFB8F1000F7FF4D5AEF06920F0C4
:100F40008050F061CFE600BF306820F48030306020
:100F5000306820F480203060FFF7B2FC054600BF07
:100F6000306880037FF59DAEFFF7AAFC401B642824
:100F70004FF00300F4D9CCE6306840F480203060B4
:100F8000306840F480303060FFF79AFC054600BFBF
:100F9000306880033FF585AEFFF792FC401B642864
:100FA000F6D9032002B0BDE8F08100BF206AB0F599
:100FB000803F05D17168A26821F40031114371604E
:100FC0007168626A21F47411114308437060012052
:100FD0003866FFF775FC0446306880013FF598AE2F
:100FE000FFF76EFC001B02284FF00300F4D990E6D7
:100FF000411E0020B0EB116F1CBF012070474EF264
:101000001002CEF2000251604EF62351CEF20001E2
:10101000F0230B70072190601160704710B590F8B5
:101020003C20012A4FF002023FD080F83D200268A8
:10103000D2F804E0D2F808C00C682EF07003234305
:1010400040F6FF34C4F20004A242536010DCB2F157
:10105000804F1FD040F20043C4F200039A4219D0DF
:1010600040F60003C4F200039A4213D017E000BF19
:1010700040F60043C4F200039A420BD043F200430F
:10108000C4F201039A4205D042F60043C4F20103C0
:101090009A4204D149682CF08003194391600121E0
:1010A000002280F83D1080F83C20104610BD000062
:1010B000002804BF0120704710B5044690F83D0099
:1010C00028B9002084F83C00204600F085F8022072
:1010D00084F83D00206840F6FF330268C4F2000344
:1010E00043F2004C9842C4F2010C21DCB0F1804F75
:1010F0002CD040F20041C4F20001884226D040F6D4
:101100000001C4F20001884220D0984224DCB0F1F2
:10111000804F2FD040F20041C4F20001884229D014
:1011200040F60001C4F20001884223D026E000BF4F
:1011300040F60041C4F20001884207D0604505D066
:1011400042F60041C4F201018842DED1A16822F0DA
:1011500070020A439842DADD40F60041C4F2000111
:10116000884207D0604505D042F60041C4F2010133
:10117000884203D1216922F440720A43A36922F014
:101180008001D4F804E0E268194360450160C2625E
:10119000C0F828E005D042F60041C4F201018842BF
:1011A00001D16169016301214161002084F8461089
:1011B00084F83E1084F83F1084F8401084F8411001
:1011C00084F8421084F8431084F8441084F84510E1
:1011D00084F83D1010BD000081B0006840F6004169
:1011E000C4F20001884201D001B0704741F21C00F6
:1011F000C4F20200016841F008010160006800F0DB
:1012000008000090009801B07047000090F83D1071
:1012100001291CBF01207047022180F83D100068A1
:1012200040F6FF31C4F2000188420FDCB0F1804F7C
:101230001ED040F20041C4F20001884218D040F6AE
:101240000001C4F20001884212D018E040F60041CB
:10125000C4F2000188420BD043F20041C4F2010104
:10126000884205D042F60041C4F20101884206D10D
:10127000816801F00701062904BF0020704701685A
:1012800041F00101016000207047000080B590F836
:101290003C20012A4FF0020200F0C28080F83D207D
:1012A000D0F800C04FF67772DCF8083023EA02026B
:1012B000CCF808200B684F2B28DC1F2B44DD202B9B
:1012C00045D0302B43D0402B40F0AC80D1F804E027
:1012D000C968DCF82030DCF8202022F00102CCF8CC
:1012E0002020DCF8182022F0F00242EA011123F05D
:1012F0000A0242EA0E02CCF81810CCF82020DCF8E2
:10130000081041F0470121F0300180E06F2B27DD0C
:10131000B3F5005F48D0B3F5805F7AD0702B40F012
:101320008180D1E901E3C968DCF8082043EA0E03B3
:1013300022F47F4243EA01211143CCF80810DCF883
:10134000081041F0770162E00BB1102B6AD1DCF894
:10135000081021F07001194341F0070157E000BF68
:10136000502B35D0602B5DD1D1F804E0C968DCF892
:101370002030DCF8202022F01002CCF82020DCF80D
:10138000182022F4704242EA013123F0A00242EA1E
:101390000E12CCF81810CCF82020DCF8081041F020
:1013A000670121F0100132E0D1E901E3C968DCF8FE
:1013B000082043EA0E0322F47F4243EA012111434D
:1013C000CCF80810DCF8081041F480411FE000BFA1
:1013D000D1F804E0C968DCF82030DCF8202022F0E5
:1013E0000102CCF82020DCF8182022F0F00242EABA
:1013F000011123F00A0242EA0E02CCF81810CCF8D0
:101400002020DCF8081041F0570121F02001CCF831
:1014100008100022012180F83D10002180F83C10C6
:10142000104680BD0122F5E72DE9F04190F83C30EF
:10143000012B04BF0220BDE8F0814FEAB202032A6B
:1014400000F21C81DFE802F0024690DA036843F202
:1014500000461D6A1A6A25F0020522F001021A628E
:101460001A465C6852F818EF8F68D1F800C0C4F2D1
:101470000106B34245EA070505D042F60047C4F22B
:101480000107BB4205D1CF6825F00C0527F0040702
:101490003D43B34205D042F60046C4F20106B342D2
:1014A00005D1D1E9056724F4407434433C432EF060
:1014B000730747EA0C075C609F614F6809695F63C7
:1014C0001D629F6947F008079F619F6927F0040725
:1014D0009F61C9E0036843F200461D6A1A6A25F05D
:1014E000200522F010021A621A46D3F804C052F8FE
:1014F000188F8F68D1F800E0C4F20106B34245EAC4
:10150000071505D042F60047C4F20107BB4207D1D8
:10151000CF686FF0400425F0C00504EA07142543A6
:10152000B34205D042F60044C4F20104A34206D1FE
:10153000D1E905462CF44067264347EA860C28F497
:10154000E64444EA0E27C3F804C09F614F68096966
:101550009F631D629F6947F400679F619F6927F43D
:1015600080679F617FE000BF036843F200461D6A09
:101570001A6A25F4007522F480721A621A46D3F8AA
:1015800004C052F81CEF8F68D1F80080C4F2010645
:10159000B34245EA072505D042F60047C4F20107E9
:1015A000BB4208D1CF6840F2FF443F0225F44065BA
:1015B00027EA04042543B34205D042F60044C4F2AE
:1015C0000104A34206D1D1E905462CF44057264335
:1015D00047EA061C2EF0730747EA0807C3F804C061
:1015E000DF614F680969DF631D62DF6947F0080743
:1015F000DF61DF6927F00407DF6135E0036843F24C
:101600000047D3F820C01A6AC4F2010722F48052BE
:101610001A621A465C6852F81C5FD1F800E08E68C6
:10162000BB4205D042F60047C4F20107BB4204D1D9
:101630004F6924F4804444EA87142CF4005747EAA5
:10164000063725F4E64646EA0E265C60DE614E6803
:1016500009691E641F62DF6947F40067DF61DF69A3
:1016600027F48067DF6109021368194311600021C4
:10167000002280F83C200846BDE8F08101210022CC
:1016800080F83C200846BDE8F0810000002804BF37
:101690000120704710B5044690F83D0028B900209D
:1016A00084F83C00204600F085F8022084F83D00D4
:1016B000206840F6FF330268C4F2000343F2004C96
:1016C0009842C4F2010C21DCB0F1804F2CD040F2E2
:1016D0000041C4F20001884226D040F60001C4F265
:1016E0000001884220D0984224DCB0F1804F2FD0F6
:1016F00040F20041C4F20001884229D040F60001C6
:10170000C4F20001884223D026E000BF40F6004129
:10171000C4F20001884207D0604505D042F600417E
:10172000C4F201018842DED1A16822F070020A43AE
:101730009842DADD40F60041C4F20001884207D049
:10174000604505D042F60041C4F20101884203D150
:10175000216922F440720A43A36922F08001D4F87F
:1017600004E0E268194360450160C262C0F828E005
:1017700005D042F60041C4F20101884201D16169FD
:10178000016301214161002084F8461084F83E1075
:1017900084F83F1084F8401084F8411084F8421017
:1017A00084F8431084F8441084F8451084F83D1000
:1017B00010BD00007047000041B1082910D0042975
:1017C00014BF00F1410200F13F020BE090F83E200F
:1017D000012A1CBF01207047022280F83E2013E03E
:1017E00000F140021278012A1CBF0120704702223A
:1017F000082907D0042914BF80F8412080F83F2031
:1018000002E000BF80F84020006801F01F010122C3
:10181000036A02FA01F123EA01020262026A114339
:1018200040F6FF32C4F20002904201620EDCB0F1D9
:10183000804F25D040F20041C4F2000188421FD001
:1018400040F60001C4F2000118E000BF40F600417C
:10185000C4F20001884213D043F20042C4F20102F4
:1018600042F600419042C4F2010101D088420ED1FB
:10187000436C904243F40043436401D0884206D154
:10188000816801F00701062904BF00207047016844
:1018900041F0010101600020704700007047000026
:1018A00070470000B0B582B0044600680168C368A4
:1018B000426901F02F05202D03F0200506D12DB13E
:1018C000204602B0BDE8B04000F092BC5FEA017C67
:1018D0001EBF02F0010E03F4907212EB0E0253D100
:1018E000226B012A05D111F0100218BF13F010026B
:1018F00036D10A0622D513F080021FD094F8411089
:1019000021293FD1A168B1F5805F03D12169002968
:1019100000F07082216A4A1C226209784160E18CE1
:1019200001390A04E1842DD1C16821F08001C16030
:10193000C16841F04001C16002B0B0BD490621D587
:1019400013F040011ED0C16821F04001C160202188
:10195000204684F8411002B0BDE8B04000F030BB32
:10196000002101910168019141680191019940694B
:10197000400613D4A08DE18DE28D002A18BF884265
:1019800040F0BA8102B0B0BDCA0718BF13F480722C
:1019900040F0B6804A0700F1B980BEE0E06B016814
:1019A00049688AB2002AEDD0A38D9A42EAD2E18535
:1019B0008069202800F09C80206850E8030F21688F
:1019C00020F4807041E80302DAB1206850E8030F88
:1019D000216820F4807041E8030292B1206850E849
:1019E000030F216820F4807041E803024AB12068A7
:1019F00050E8030F216820F4807041E80302002AB8
:101A0000DAD1206850E8050F216820F0010041E894
:101A10000502DAB1206850E8050F216820F00100C6
:101A200041E8050292B1206850E8050F216820F0D6
:101A3000010041E805024AB1206850E8050F21681D
:101A400020F0010041E80502002ADAD1206850E8C0
:101A5000050F216820F0400041E80502DAB1206856
:101A600050E8050F216820F0400041E8050292B1DE
:101A7000206850E8050F216820F0400041E8050289
:101A80004AB1206850E8050F216820F0400041E885
:101A90000502002ADAD1202084F8420000202063C9
:101AA000206850E8030F216820F0100041E803028D
:101AB000DAB1206850E8030F216820F0100041E8F7
:101AC000030292B1206850E8030F216820F0100053
:101AD00041E803024AB1206850E8030F216820F072
:101AE000100041E80302002ADAD1E06BFEF714FD92
:101AF00002206063A08DE18D401A81B2204674E11E
:101B0000626C42F0010262644A0706D5BEF1000F22
:101B100003D0626C42F0020262648A0706D5BEF10D
:101B2000000F03D0626C42F004026264BCF1000F4B
:101B300009D545EA0E02B2FA82F2520903D1626C6B
:101B400042F008026264626C002A3FF41BAF11F09D
:101B5000200118BF002D03D0204600F049FB20686B
:101B60004069616C00F0400001F00801401800F08D
:101B7000B58000BF206850E8030F216820F4907002
:101B800041E80302BAB3206850E8030F216820F44B
:101B9000907041E8030272B3206850E8030F216897
:101BA00020F4907041E803022AB3206850E8030F44
:101BB000216820F4907041E80302002ADAD11AE08B
:101BC000206850E8050F216820F0010041E8050277
:101BD000DAB1206850E8050F216820F0010041E8E3
:101BE000050292B1206850E8050F216820F001003D
:101BF00041E805024AB1206850E8050F216820F04D
:101C0000010041E80502002ADAD1206B012824D125
:101C1000206850E8030F216820F0100041E803021B
:101C2000DAB1206850E8030F216820F0100041E885
:101C3000030292B1206850E8030F216820F01000E1
:101C400041E803024AB1206850E8030F216820F000
:101C5000100041E80302002ADAD1202084F8420073
:101C6000002020632068406940063FD5206850E886
:101C7000050F216820F0400041E80502DAB1206834
:101C800050E8050F216820F0400041E8050292B1BC
:101C9000206850E8050F216820F0400041E8050267
:101CA0004AB1206850E8050F216820F0400041E863
:101CB0000502002ADAD1E06BC0B142F2E511C0F6AC
:101CC00000014163FEF74CFC00283FF45BAEE06B83
:101CD000416B02B0BDE8B040084700BF2046FFF7A7
:101CE000DFFD0020606402B0B0BD00BF204602B03E
:101CF000BDE8B040FFF7D4BD401A216851E8031F8A
:101D0000226821F4907142E80313DBB1216851E8A5
:101D1000031F226821F4907142E8031393B12168F4
:101D200051E8031F226821F4907142E803134BB17C
:101D3000216851E8031F226821F4907142E80313DF
:101D4000002BDAD1216851E8051F226821F001013A
:101D500042E80513DBB1216851E8051F226821F034
:101D6000010142E8051393B1216851E8051F22687B
:101D700021F0010142E805134BB1216851E8051F2C
:101D8000226821F0010142E80513002BDAD120215D
:101D900084F8421000212163216851E8031F226862
:101DA00021F0100142E80313DBB1216851E8031F61
:101DB000226821F0100142E8031393B1216851E831
:101DC000031F226821F0100142E803134BB1216880
:101DD00051E8031F226821F0100142E80313002B91
:101DE000DAD1022281B22046626302B0BDE8B0407F
:101DF000FFF754BD216A31F8022B6FF35F22426076
:101E000021628CE5002804BF0120704710B504460C
:101E100090F8410028B9002084F84000204600F0E6
:101E200063F8242084F841002068D4E90212C368D2
:101E300023F40053C360036923F440531A4302613F
:101E4000D4E904231143C268194341F20C639A4355
:101E50001143C1604169A26921F44071114343F605
:101E60000002C4F201029042416103D0FEF7BEFEBF
:101E700002E000BFFEF7CEFE6268192148439100E0
:101E8000B0FBF1F048F21F51C5F2EB11A0FB0123AA
:101E90005A094FF69C73C0F6FF7302FB030032230E
:101EA00003EB0010A0FB0101F02303EA51132068AB
:101EB00003EB0212C1F3431111448160016921F463
:101EC00090410161416921F02A014161C16841F4F9
:101ED0000051C16000202021606484F8411084F822
:101EE0004210606310BD000070B586B045F2000579
:101EF0000068C4F200050026A842049602D006B08D
:101F000070BD00BF41F21800C4F20200416802AC8B
:101F100041F480114160416801F4801101910199FF
:101F2000016841F010010160016801F010010191A8
:101F30000199016841F0200101600068214600F02C
:101F40002000019001984FF48050029002200390ED
:101F50000320059005F54040FEF7AEFB0420CDE9D7
:101F6000020605F5444021460496FEF7A5FB352000
:101F700001210022FEF71EFD3520FEF707FD06B009
:101F800070BD000070470000034690F84100202813
:101F90001CBF0220704700294FF0010018BF002A23
:101FA00000D170471962002021219A84DA84586494
:101FB00083F841101968CA6842F08002CA6070470D
:101FC00070470000FEE7000080B586B0002041F2B7
:101FD00018010590C4F202010A6842F004020A6086
:101FE0000A6802F004020192019A0A6842F00802AB
:101FF0000A600A6802F008020192019A0A6842F037
:1020000010020A600A6802F010020192019A0A683E
:1020100042F020020A60096801F020010191019953
:102020004FF60341CDE90210049040F60040C4F29F
:10203000010002A9FEF740FB06B080BDB0B594B028
:1020400040F6004540F29800C4F200050021C2F2BB
:102050000000072242F20F730E91CDE90C11099195
:10206000CDE90711CDE90511CDE90311CDE9011144
:10207000C0E90052C0E9021301618161FFF718F85D
:10208000002818BFFEF72AF94FF480500B9040F259
:102090009800C2F200000BA9FFF7F8F8002818BF5B
:1020A000FEF71CF940F29800C2F20000FFF7EEFACA
:1020B000002818BFFEF712F940F298000024C2F27F
:1020C000000008A9CDE90844FEF7A8FF002818BFC2
:1020D000FEF704F96020CDE9010440F29800C2F255
:1020E000000001A9002203940594FFF79DF9002840
:1020F00018BFFEF7F3F840F29800C2F2000001A901
:102100000422FFF791F9002818BFFEF7E7F840F224
:102110009800C2F2000001A90822FFF785F9002803
:1021200018BFFEF7DBF840F29804C2F2000401A9E0
:1021300020460C22FFF778F9002818BFFEF7CEF8EA
:1021400020680021A842129102D014B0B0BD00BF97
:1021500041F21800C4F20200016841F0040101607C
:10216000006810A900F004000F900F980F20109045
:1021700002201190139005F57C40FEF79DFA14B0F3
:10218000B0BD000080B540F2E00045F20001C2F2AF
:102190000000C4F2000100234FF00C0C4FF4E132B8
:1021A00080E80E00C0E90333C0E905C3C361FFF74F
:1021B00029FE002808BF80BDBDE88040FEF78EB82C
:1021C000FEE70000FEE700007047000070470000D7
:1021D000FEF77CBB7047000040F2E000C2F2000056
:1021E000FFF760BB406A0021C185C184FFF758BB7F
:1021F00081B090F84210222921D183680246B3F5BC
:10220000805F09D152F8281F52F8183C002B63D088
:1022100003685B680AE000BF52F8281F13B903691E
:10222000002BF5D003685B6803F07F030B70116827
:1022300001311160C18D01390A04C18502D001B09C
:10224000704700BF0168CA6822F02002CA60CA68ED
:1022500022F48072CA604A6922F001024A61202198
:1022600080F8421000214163026B012A3CD10163D6
:10227000016851E8031F026821F0100142E80313CE
:10228000DBB1016851E8031F026821F0100142E848
:10229000031393B1016851E8031F026821F0100194
:1022A00042E803134BB1016851E8031F026821F0B3
:1022B000100142E80313002BDAD101680A68D20644
:1022C00006D5002200920A680092496800910099A0
:1022D000818D01B0FFF7E2BA026852686FF35F22A6
:1022E00021F8022B8162A5E701B0FFF74BBE000089
:1022F000FEE7000090B0FEF7F7FA06AC201D24219F
:10230000FDF784FF0220069001200A9010200B9018
:10231000002520460D95FEF791FC28B1EFF31080C3
:1023200072B600BFFEE700BF0F20CDE9010501A88E
:102330000021CDE903550595FEF778FB20B1EFF3B9
:10234000108072B6FEE700BFFFF73EFEFFF776FE95
:10235000FFF718FF40F29804C2F200042046FEF78F
:1023600055FF20460021FFF727FA20460421FFF7FA
:1023700023FA20460821FFF71FFA20460C21FFF719
:102380001BFA40F2700540F2E004C2F2000509A613
:10239000C2F200046878022206EB80000169204640
:1023A000FFF7F2FD4FF4FA70FEF772F9FDF79CFFAC
:1023B000F0E700BF7B270008782700087527000892
:1023C0007227000870270008732700087627000886
:1023D000792700087C27000890EA010F48BF81F0A8
:1023E000004100F14281421A3CBF801A89184FEA2D
:1023F000D052A2EBD1534FF07F4C1CEA410F18BFD3
:102400009CEA026F00F03B804FF0004C4CEA002049
:102410004CEA012121FA03FC10EB0C0C1ED202F154
:10242000FF325FEA1C2040EBC25038BF70471CF0FF
:102430007F0F4FEA400C18BFBCF17F4F38BF704789
:10244000C3F12003994008BF20F00100BCF17F4F89
:1024500038BF7047A0F1C04000F0FBB84FEA3C0025
:10246000000A40EBC25028BF1CF0FF0F4FEA400C9F
:10247000E6D018BFBCF17F4F38BF7047EAE79CEA4F
:10248000026F05D010EA5C0F08BF00F000407047F3
:1024900010B500F098F800BF64FBBE3EB0FA80F3C0
:1024A00010FA03F2C3F19D030AD0D90501EB122003
:1024B000530638BF704700F1010008BF20F001004B
:1024C000704700004FF47F0C1CEAD0121EBF1CEABC
:1024D000D11392EA0C0F93EA0C0F00F0478090EAB8
:1024E000010F48BF42F480724FF0004C4CEA0020CC
:1024F0004CEA012102EB0302A0FB0113A2F500024A
:10250000002918BF43F001035B0028BF4FEA3303E3
:1025100042EB22425FEA132C4CEBC2502EBFBCEBC5
:10252000436FB2F57C0F70474FEA036CBCF1004F6C
:1025300008BF20F00100B2F57C0F38BF70470BD503
:1025400082F0FF0212F5803FC8BF704700F1C04023
:10255000D8BF00F00040704700F5000C5FEA4C0C5B
:1025600048BF7047B0F1C04000F073B80CEAD11317
:1025700090EA010F48BF42F48072624538BF63455C
:1025800004D280EA010000F00040704710B500F06E
:102590001AF800BF8900013E00F007B800F009B842
:1025A0005FEA410C5FEA1C6C08D080EA010000F091
:1025B00050B85FEA400C5FEA1C6CF6D14FF0004067
:1025C000A0F5800070470EF1020E2EF0030E5EF8AB
:1025D000044B244204D44FEA4102B2F17F4F11D898
:1025E0004FEA4003B3F17F4F0CD80ED14FEAD07CB5
:1025F0000CEB4C0C0CF1020CB2F17F4F08BF4CEB12
:10260000D17C04E04FF0080C01E04FEAD17C0CEBE8
:102610004C0324FA03F404F00704B4F1040C06D2CA
:102620000EEB840CBDE810404CF0010C6047DFE875
:102630000CF0070802024FF00040A0F5800010BD2A
:102640000846420018BFD2F1807288BF00F00040F7
:1026500010BDFF2141EAD050C005704790EA010F3C
:1026600048BF81F000413FF5BEAE421A04D882F067
:102670000042A0EB020011444FEAD052A2EBD1532A
:102680004FF07F4C1CEA410F18BF9CEA026F4AD002
:102690004FF0004C4CEA00204CEA012121FA03FCE7
:1026A000B0EB0C0C0FD412F0FE0F36D05FEA4C00EA
:1026B0001DD5001240EBC25038BF70471CF03F0FD1
:1026C00018BF70470BE05FEA1C20A2F1010240EB4B
:1026D000C25038BF70471CF07F0F18BF7047C3F15E
:1026E0002003994014BF401E20F0010070474FEABC
:1026F0001223800808BF7047B0FA80FCA2EB0C02DE
:10270000CCF1280C60FA0CF093EA122F04BF00EB16
:10271000C25070474FEAC3707047130A5FEADC107B
:1027200008BF7047F6E79CEA026F04D010EA5C0F1E
:1027300008BF0020704710B5FFF745FF40DFF63EA9
:1027400081F000407047000000000000000001021E
:102750000304060708090000000001020304010247
:1027600002030405060708090A0B0C0D0E0F1010D2
:1027700030002D31002D32002D33002D34000000AB
:10278000A027000800000020100000006C010008D5
:10279000B027000810000020200700008801000872
:1027A00001000000100000000024F4000000000000
:0400000508000131BD
:00000001FF
