:020000040800F2
:10000000E8060020CD01000829180008891600081C
:1000100025180008D50200083D180008000000005F
:10002000000000000000000000000000311800087F
:10003000D9020008000000002D180008351800083B
:10004000E7010008E7010008E7010008E7010008F0
:10005000E7010008E7010008E7010008E7010008E0
:10006000E7010008E7010008E7010008E7010008D0
:10007000E7010008E7010008E7010008E7010008C0
:10008000E7010008E7010008E7010008E7010008B0
:10009000E7010008E7010008E7010008E7010008A0
:1000A000E7010008E7010008E7010008E701000890
:1000B000E7010008E7010008E7010008E701000880
:1000C000E7010008E7010008E7010008E701000870
:1000D000E7010008E7010008E7010008E701000860
:1000E000E7010008E7010008E7010008E701000850
:1000F000E7010008E7010008E7010008E701000840
:10010000E7010008E7010008E7010008E70100082F
:10011000E7010008E7010008E7010008E70100081F
:10012000E7010008E7010008E7010008E70100080F
:1001300000F002F800F03AF80AA090E8000C8244BF
:100140008344AAF10107DA4501D100F02FF8AFF29C
:10015000090EBAE80F0013F0010F18BFFB1A43F0A5
:1001600001031847001B0000201B0000103A24BFA9
:1001700078C878C1FAD8520724BF30C830C144BF0C
:1001800004680C607047000000230024002500264E
:10019000103A28BF78C1FBD8520728BF30C148BFEA
:1001A0000B6070471FB51FBD10B510BD00F058F8AB
:1001B0001146FFF7F7FF01F043FB00F076F803B4B8
:1001C000FFF7F2FF03BC00F07DF80000094880470C
:1001D00009480047FEE7FEE7FEE7FEE7FEE7FEE729
:1001E000FEE7FEE7FEE7FEE704480549054A064B41
:1001F000704700003918000831010008E8000020AD
:10020000E8060020E8020020E80200204FF000028B
:1002100000B5134694469646203922BFA0E80C50FC
:10022000A0E80C50B1F12001BFF4F7AF090728BFD7
:10023000A0E80C5048BF0CC05DF804EB890028BF53
:1002400040F8042B08BF704748BF20F8022B11F07C
:10025000804F18BF00F8012B7047704770477047F8
:10026000754600F02BF8AE4605006946534620F06F
:100270000700854618B020B5FFF7B6FFBDE820405F
:100280004FF000064FF000074FF000084FF0000B52
:10029000AC46ACE8C009ACE8C009ACE8C009ACE8C1
:1002A000C00921F007018D46704710B50446AFF331
:1002B00000802046BDE81040FFF781BF004870472E
:1002C0001000002001491820ABBEFEE72600020006
:1002D00070470000FEE7000070470000EFF3108059
:1002E00072B600BFFEE700002DE9F04381B040F692
:1002F0000044C4F2010420464FF4806100F00CFA7F
:10030000054620464FF4006100F006FA800140EAFD
:10031000C51520464FF4805100F0FEF945EA40151E
:1003200020464FF4005100F0F7F945EA0015204649
:100330004FF4804100F0F0F945EAC00520464FF443
:10034000004100F0E9F945EA80052046012100F06E
:10035000E3F945EA40052046022100F0DDF945EACF
:100360000002D0B240F27009411EC2F200097F299A
:1003700089F8002000F28680FC20DFE811F093006D
:100380008B008B0081008F008100810089008F002D
:100390008F008F0089008F008F008F0095008F00E5
:1003A0008F008F008F008F008F008F0097008F00CD
:1003B0008F008F008F008F008F008F0087008F00CD
:1003C0008F008F008F008F008F008F008F008F00B5
:1003D0008F008F008F008F008F008F0087008F00AD
:1003E0008F008F008F008F008F008F008F008F0095
:1003F0008F008F008F008F008F008F008D008F0087
:100400008F008F008F008F008F008F008F008F0074
:100410008F008F008F008F008F008F008F008F0064
:100420008F008F008F008F008F008F008F008F0054
:100430008F008F008F008F008F008F008D008F0046
:100440008F008F008F008F008F008F008F008F0034
:100450008F008F008F008F008F008F008F008F0024
:100460008F008F008F008F008F008F008F008F0014
:100470008F008F008F008F008F008F00980000BFCB
:10048000022014E0C02803D0E02807D1FE200EE0AF
:1004900001200CE003200AE0FD2008E099F80100AB
:1004A00007E000BF042002E0FF2000E0002089F800
:1004B000010001F071FA0446C9F80400D9F80800F7
:1004C000D9E90561D9F81C8001F004FA0546C9F89C
:1004D00008002046314601F03FFBD9F820100646BF
:1004E000C9F80C00284601F06BFA07464046214641
:1004F00001F066FA394601F0EDF9D9F82410074603
:100500000846314601F05CFA394601F0E3F909F199
:10051000100131C101B0BDE8F08300002DE9F04FBA
:1005200082B0D1F800C0BCF1000F00F0F180A0F162
:10053000804241F60045A2F58432C4F2010540F242
:10054000004E4FEAB2240627A842C4F2010E08BFAB
:100550000527052C4FF000044FF001084FF00F0362
:100560004FF0000A4FF0000B38BF4FEAB227009758
:100570000AE000BFD1F800C00AF1010A3CFA0AF211
:1005800004F1040400F0C48008FA0AF91CEA090F17
:10059000F0D04E684FF6FF72C1F21002964211DCA5
:1005A000122E55D8DFE806F0340A44485454545407
:1005B0005454545454545454544C5000D1F80CB026
:1005C00046E000BF4FF6FF72C1F2210296420FDCF7
:1005D0000022C1F2110296421AD00022C1F2120288
:1005E000964215D00022C1F22102964210D02FE08F
:1005F0000022C1F2220296420AD00022C1F2310248
:10060000964205D00022C1F23202964220D100BFAC
:100610008A684AB1012A14BFC0F81490C0F810903B
:100620004FF0080B14E000BF4FF0040B10E000BFC8
:10063000CA6802F1080B0BE04FF0000B08E000BFA6
:10064000CA6802F1040B03E0CA6802F10C0B00BF98
:1006500022460646BAF1080F24BF203A043637680E
:1006600003FA02F5AF430BFA02F23A433260CA7959
:10067000D2067FF57FAF41F21807C4F202073A684D
:100680004FF6084342F001023A603A68CFF6FF7332
:1006900002F001020192019A2AF0030272440F252E
:1006A000D75804F00C06B540AF43009D05FA06F696
:1006B0003743D7504E6840F20C45F202DEF808206E
:1006C00054BF22EA090242EA0902CEF80820C4F225
:1006D00001052A68B70254BF22EA090242EA090268
:1006E0002A60DEF80420B70354BF22EA090242EA76
:1006F0000902CEF804200F23DEF80020F70354BFD0
:1007000022EA090242EA0902CEF8002032E700BFDD
:1007100002B0BDE8F08F00008068084018BF0120DB
:100720007047000040F2E000C2F20000006870472D
:1007300040F2000040F2E001C2F20000C2F200010B
:1007400000780A68104408607047000080B542F2E3
:100750000000C4F20200016841F0100101600320B2
:1007600000F072F80F2000F005F800F027F80020E4
:1007700080BD000070B540F20006C2F2000640F2F3
:1007800008013278C2F200014FF47A730968B3FBB2
:10079000F2F20446B1FBF2F1084600F01FFB0F2C09
:1007A0004FF0010508D838B94FF0FF30214600223C
:1007B000002500F01DF87460284670BD82B041F23B
:1007C0001800C4F20200016841F0010101600168F3
:1007D00001F0010101910199416841F080514160AE
:1007E000406800F080500090009802B07047000010
:1007F00010B54EF60C5CCEF2000CDCF80030C3F302
:10080000022E8EF00704042C28BF0424BEF103033B
:100810004FF0FF3E0EFA04F438BF0023A143994085
:100820000EFA03F39A43114300F00F0200F1604304
:100830000901043A03F564436244002848BF02F109
:100840000C03197010BD00004EF60C51CEF20001E1
:100850000A684FF6FF031A4060F30A2242F08060F4
:1008600040F0FD70086070472DE9F04381B000282A
:1008700000F0858042F20008C4F202080446D8F86D
:1008800000000D4600F0070088420CD2D8F80000A6
:1008900020F007002843C8F80000D8F8000000F056
:1008A0000700A8426BD1206841F204098107C4F215
:1008B000020917D5410705D5D9F8001041F4E061C8
:1008C000C9F80010010705D5D9F8001041F46051AE
:1008D000C9F80010D9F80010A26821F0F001114306
:1008E000C9F80010C00741D1D8F8000000F0070097
:1008F000A8420CD9D8F8000020F007002843C8F817
:100900000000D8F8000000F00700A84237D12068A6
:10091000410707D5D9F80010E26821F4E0611143DE
:10092000C9F80010000708D5D9F80000216920F4A3
:10093000605040EAC100C9F80000D9F8002002F078
:100940000C00082841F20020C0F27A0050D141F694
:100950005443C2F38341C0F60003595CD2033BD435
:1009600040F60010C0F23D00484341E060680228B4
:100970000AD001282AD159F8041C890308D401207F
:1009800001B0BDE8F08300BF59F8041C8901F6D519
:10099000D9F8001021F003010843C9F80000FFF75F
:1009A000C1FE064641F28837D9F80000616800F0C0
:1009B0000C00B0EB810F97D0FFF7B4FE801BB8425C
:1009C000F2D9032001B0BDE8F08300BF59F8041C40
:1009D0008907D4D5DCE700BFD9F8002041F652439F
:1009E000C2F34042C0F600039A5C4843B0FBF2F009
:1009F000D9F8001041F64242C1F30311C0F60002DB
:100A0000515C40F2080220FA01F140F20400C2F207
:100A100000000068C2F200021160FFF7ABFE002088
:100A200001B0BDE8F08300002DE9F04182B000285C
:100A300068D00446007841F20006C007C4F20206FE
:100A400025D0706800F00C0004281BD0706800F0FE
:100A50000C00082802D17068C00313D46068002815
:100A600000F06881B0F5A02F00F07C81B0F5803FE8
:100A700000F07C81306820F480303060306820F4F1
:100A8000802076E13068800301D56068D0B320789B
:100A9000800718D5706810F00C0F07D0706800F050
:100AA0000C0008286ED17068C0036BD430688007D2
:100AB00002D52069012825D13068616920F0F8004D
:100AC00040EAC1003060207800071FD4207840073A
:100AD00032D4E56995B1706800F00C00082840F048
:100AE0008F80012D0ED07068216A00F480328A4216
:100AF00008D1616A00F47010884203D1002002B06E
:100B0000BDE8F081012002B0BDE8F081A0690028B5
:100B100062D00020C4F242200121C0F88014FFF707
:100B200001FE0546706A800700F18C80FFF7FAFD30
:100B3000401B0228F6D92AE1F06910F0805808D14C
:100B4000F06940F08050F061F06900F08050009052
:100B5000009847F20007C4F200073868C00529D49E
:100B6000386840F480703860FFF7DCFD054600BF50
:100B70003868C0051ED4FFF7D5FD401B6428F7D99F
:100B800005E100BF2069002840F20000C4F24220C5
:100B900000F0828001210160FFF7C4FD054600BF1F
:100BA000306880073FF588AFFFF7BCFD401B022887
:100BB000F6D9ECE0E068002800F08080052800F01D
:100BC0009780012800F09880306A20F001003062A0
:100BD000306A20F0040092E00020C4F2422000219C
:100BE000C0F88014FFF79EFD054600BF706A8007BD
:100BF0007FF56CAFFFF796FD401B0228F6D9C6E0E3
:100C00000027C4F2422700203866FFF78BFD022D33
:100C100005460BD13068800140F1BE80FFF782FDB0
:100C2000401B02284FF00300F4D968E730688001C8
:100C30007FF564AFFFF776FD401B02284FF00300FD
:100C4000F4D95CE740F20800C2F20000006844F604
:100C5000D351C1F26201A0FB0101480A019000BF1B
:100C600000BF0198411E002801913FF42FAF00BF43
:100C70000198411E002801913FF428AF00BF019860
:100C8000411E002801913FF421AF00BF0198411E91
:100C900000280191E4D119E700210160FFF742FD2E
:100CA000054600BF306880077FF50DAFFFF73AFDBE
:100CB000401B02284FF00300F4D920E7306A20F0EF
:100CC00001003062306A20F004003062FFF72AFD34
:100CD000054641F2883700BF306A800720D5FFF70C
:100CE00021FD401BB8424FF00300F5D907E700BFD4
:100CF000306A40F004003062306A40F00100306237
:100D0000FFF710FD054641F2883700BF306A8007C3
:100D100006D4FFF707FD401BB842F7D937E000BF04
:100D2000B8F1000F7FF4D5AEF06920F08050F0618B
:100D3000CFE600BF306820F480303060306820F4A7
:100D400080203060FFF7EEFC054600BF306880036E
:100D50007FF59DAEFFF7E6FC401B64284FF00300D3
:100D6000F4D9CCE6306840F480203060306840F43C
:100D700080303060FFF7D6FC054600BF3068800346
:100D80003FF585AEFFF7CEFC401B6428F6D9032063
:100D900002B0BDE8F08100BF206AB0F5803F05D108
:100DA0007168A26821F40031114371607168626A50
:100DB00021F4741111430843706001203866FFF775
:100DC000B1FC0446306880013FF598AEFFF7AAFCFD
:100DD000001B02284FF00300F4D990E6411E0020CA
:100DE000B0EB116F1CBF012070474EF21002CEF223
:100DF000000251604EF62351CEF20001F0230B7039
:100E0000072190601160704710B590F83C20012ACE
:100E10004FF002023FD080F83D200268D2F804E093
:100E2000D2F808C00C682EF07003234340F6FF345C
:100E3000C4F20004A242536010DCB2F1804F1FD014
:100E400040F20043C4F200039A4219D040F6000376
:100E5000C4F200039A4213D017E000BF40F60043EB
:100E6000C4F200039A420BD043F20043C4F20103E0
:100E70009A4205D042F60043C4F201039A4204D1DB
:100E800049682CF08003194391600121002280F809
:100E90003D1080F83C20104610BD0000002804BF23
:100EA0000120704710B5044690F83D0028B9002095
:100EB00084F83C00204600F085F8022084F83D00CC
:100EC000206840F6FF330268C4F2000343F2004C8E
:100ED0009842C4F2010C21DCB0F1804F2CD040F2DA
:100EE0000041C4F20001884226D040F60001C4F25D
:100EF0000001884220D0984224DCB0F1804F2FD0EE
:100F000040F20041C4F20001884229D040F60001BD
:100F1000C4F20001884223D026E000BF40F6004121
:100F2000C4F20001884207D0604505D042F6004176
:100F3000C4F201018842DED1A16822F070020A43A6
:100F40009842DADD40F60041C4F20001884207D041
:100F5000604505D042F60041C4F20101884203D148
:100F6000216922F440720A43A36922F08001D4F877
:100F700004E0E268194360450160C262C0F828E0FD
:100F800005D042F60041C4F20101884201D16169F5
:100F9000016301214161002084F8461084F83E106D
:100FA00084F83F1084F8401084F8411084F842100F
:100FB00084F8431084F8441084F8451084F83D10F8
:100FC00010BD000081B0006840F60041C4F200018D
:100FD000884201D001B0704741F21C00C4F2020007
:100FE000016841F008010160006800F0080000900D
:100FF000009801B07047000090F83D1001291CBF17
:1010000001207047022180F83D10006840F6FF3152
:10101000C4F2000188420FDCB0F1804F1ED040F2D4
:101020000041C4F20001884218D040F60001C4F229
:101030000001884212D018E040F60041C4F20001DD
:1010400088420BD043F20041C4F20101884205D02E
:1010500042F60041C4F20101884206D1816801F0E4
:101060000701062904BF00207047016841F0010113
:10107000016000207047000080B590F83C20012AF4
:101080004FF0020200F0C28080F83D20D0F800C08E
:101090004FF67772DCF8083023EA0202CCF8082019
:1010A0000B684F2B28DC1F2B44DD202B45D0302B29
:1010B00043D0402B40F0AC80D1F804E0C968DCF8A4
:1010C0002030DCF8202022F00102CCF82020DCF8CF
:1010D000182022F0F00242EA011123F00A0242EA4B
:1010E0000E02CCF81810CCF82020DCF8081041F0E3
:1010F000470121F0300180E06F2B27DDB3F5005F61
:1011000048D0B3F5805F7AD0702B40F08180D1E970
:1011100001E3C968DCF8082043EA0E0322F47F42A9
:1011200043EA01211143CCF80810DCF8081041F023
:10113000770162E00BB1102B6AD1DCF8081021F0C6
:101140007001194341F0070157E000BF502B35D023
:10115000602B5DD1D1F804E0C968DCF82030DCF800
:10116000202022F01002CCF82020DCF8182022F4F5
:10117000704242EA013123F0A00242EA0E12CCF89A
:101180001810CCF82020DCF8081041F0670121F09D
:10119000100132E0D1E901E3C968DCF8082043EA34
:1011A0000E0322F47F4243EA01211143CCF80810D8
:1011B000DCF8081041F480411FE000BFD1F804E0E2
:1011C000C968DCF82030DCF8202022F00102CCF8DD
:1011D0002020DCF8182022F0F00242EA011123F06E
:1011E0000A0242EA0E02CCF81810CCF82020DCF8F3
:1011F000081041F0570121F02001CCF8081000221E
:10120000012180F83D10002180F83C10104680BD7F
:101210000122F5E72DE9F04190F83C30012B04BFA5
:101220000220BDE8F0814FEAB202032A00F21C81DD
:10123000DFE802F0024690DA036843F200461D6AD6
:101240001A6A25F0020522F001021A621A465C6849
:1012500052F818EF8F68D1F800C0C4F20106B3420B
:1012600045EA070505D042F60047C4F20107BB4234
:1012700005D1CF6825F00C0527F004073D43B342A4
:1012800005D042F60046C4F20106B34205D1D1E9C9
:10129000056724F4407434433C432EF0730747EA57
:1012A0000C075C609F614F6809695F631D629F69FD
:1012B00047F008079F619F6927F004079F61C9E015
:1012C000036843F200461D6A1A6A25F0200522F0E1
:1012D00010021A621A46D3F804C052F8188F8F68A9
:1012E000D1F800E0C4F20106B34245EA071505D083
:1012F00042F60047C4F20107BB4207D1CF686FF046
:10130000400425F0C00504EA07142543B34205D084
:1013100042F60044C4F20104A34206D1D1E90546D5
:101320002CF44067264347EA860C28F4E64444EA56
:101330000E27C3F804C09F614F6809699F631D624F
:101340009F6947F400679F619F6927F480679F61E9
:101350007FE000BF036843F200461D6A1A6A25F465
:10136000007522F480721A621A46D3F804C052F84B
:101370001CEF8F68D1F80080C4F20106B34245EA41
:10138000072505D042F60047C4F20107BB4208D149
:10139000CF6840F2FF443F0225F4406527EA040489
:1013A0002543B34205D042F60044C4F20104A342EF
:1013B00006D1D1E905462CF44057264347EA061CDE
:1013C0002EF0730747EA0807C3F804C0DF614F68CF
:1013D0000969DF631D62DF6947F00807DF61DF69C4
:1013E00027F00407DF6135E0036843F20047D3F8D4
:1013F00020C01A6AC4F2010722F480521A621A4607
:101400005C6852F81C5FD1F800E08E68BB4205D0E2
:1014100042F60047C4F20107BB4204D14F6924F4ED
:10142000804444EA87142CF4005747EA063725F431
:10143000E64646EA0E265C60DE614E6809691E6477
:101440001F62DF6947F40067DF61DF6927F48067A7
:10145000DF6109021368194311600021002280F83E
:101460003C200846BDE8F0810121002280F83C20A4
:101470000846BDE8F0810000002804BF0120704745
:1014800010B5044690F83D0028B9002084F83C00CF
:10149000204600F085F8022084F83D00206840F6E0
:1014A000FF330268C4F2000343F2004C9842C4F2D6
:1014B000010C21DCB0F1804F2CD040F20041C4F28D
:1014C0000001884226D040F60001C4F200018842A3
:1014D00020D0984224DCB0F1804F2FD040F2004160
:1014E000C4F20001884229D040F60001C4F2000194
:1014F000884223D026E000BF40F60041C4F200013C
:10150000884207D0604505D042F60041C4F201018F
:101510008842DED1A16822F070020A439842DADDE7
:1015200040F60041C4F20001884207D0604505D072
:1015300042F60041C4F20101884203D1216922F43C
:1015400040720A43A36922F08001D4F804E0E26803
:10155000194360450160C262C0F828E005D042F638
:101560000041C4F20101884201D161690163012196
:101570004161002084F8461084F83E1084F83F1042
:1015800084F8401084F8411084F8421084F8431025
:1015900084F8441084F8451084F83D1010BD000014
:1015A0007047000041B1082910D0042914BF00F190
:1015B000410200F13F020BE090F83E20012A1CBFDF
:1015C00001207047022280F83E2013E000F1400223
:1015D0001278012A1CBF012070470222082907D077
:1015E000042914BF80F8412080F83F2002E000BFAA
:1015F00080F84020006801F01F010122036A02FA0E
:1016000001F123EA01020262026A114340F6FF324D
:10161000C4F20002904201620EDCB0F1804F25D08E
:1016200040F20041C4F2000188421FD040F60001A0
:10163000C4F2000118E000BF40F60041C4F200010E
:10164000884213D043F20042C4F2010242F6004144
:101650009042C4F2010101D088420ED1436C904205
:1016600043F40043436401D0884206D1816801F00D
:101670000701062904BF00207047016841F00101FD
:101680000160002070470000FEE7000080B586B0D2
:10169000002041F218010590C4F202010A6842F0EC
:1016A00004020A600A6802F004020192019A0A68C0
:1016B00042F008020A60096801F0080101910199ED
:1016C0004FF60341CDE90210049040F60040C4F209
:1016D000010002A9FEF722FF06B080BDB0B594B0AC
:1016E00040F6004540F29800C4F200050021C2F225
:1016F0000000072242F20F730E91CDE90C110991FF
:10170000CDE90711CDE90511CDE90311CDE90111AD
:10171000C0E90052C0E9021301618161FFF7BEFB1D
:10172000002818BFFEF7DAFD4FF480500B9040F20E
:101730009800C2F200000BA9FFF79EFC002818BF1A
:10174000FEF7CCFD40F29800C2F20000FFF794FED5
:10175000002818BFFEF7C2FD40F298000024C2F234
:10176000000008A9CDE90844FFF74EFB002818BF88
:10177000FEF7B4FD6020CDE9010440F29800C2F20A
:10178000000001A9002203940594FFF743FD0028FF
:1017900018BFFEF7A3FD40F29800C2F2000001A9B5
:1017A0000422FFF737FD002818BFFEF797FD40F22F
:1017B0009800C2F2000001A90822FFF72BFD0028C3
:1017C00018BFFEF78BFD40F29804C2F2000401A995
:1017D00020460C22FFF71EFD002818BFFEF77EFDF5
:1017E00020680021A842129102D014B0B0BD00BF01
:1017F00041F21800C4F20200016841F004010160E6
:10180000006810A900F004000F900F980F201090AE
:1018100002201190139005F57C40FEF77FFE14B076
:10182000B0BD0000FEE70000FEE7000070470000CA
:1018300070470000FEF77CBF70470000FEE7000025
:1018400090B0FEF783FF06AC201D2421FEF7DEFCDE
:101850000220069001200A9010200B9000252046BF
:101860000D95FFF7E1F828B1EFF3108072B600BFD5
:10187000FEE700BF0F20CDE9010501A80021CDE959
:1018800003550595FEF7F0FF20B1EFF3108072B617
:10189000FEE700BFFFF7FAFEFFF720FF40F29804D3
:1018A000C2F200042046FFF7A7FB20460021FFF705
:1018B00079FE20460421FFF775FE20460821FFF738
:1018C00071FE20460C21FFF76DFE00BFFEF70CFDF8
:1018D000FCE7000090EA010F48BF81F0004100F1F1
:1018E0004281421A3CBF801A89184FEAD052A2EBBB
:1018F000D1534FF07F4C1CEA410F18BF9CEA026F96
:1019000000F03B804FF0004C4CEA00204CEA0121F3
:1019100021FA03FC10EB0C0C1ED202F1FF325FEA3D
:101920001C2040EBC25038BF70471CF07F0F4FEABD
:10193000400C18BFBCF17F4F38BF7047C3F1200384
:10194000994008BF20F00100BCF17F4F38BF7047BD
:10195000A0F1C04000F0FBB84FEA3C00000A40EBA9
:10196000C25028BF1CF0FF0F4FEA400CE6D018BF52
:10197000BCF17F4F38BF7047EAE79CEA026F05D0A1
:1019800010EA5C0F08BF00F00040704710B500F08F
:1019900098F800BF64FBBE3EB0FA80F310FA03F281
:1019A000C3F19D030AD0D90501EB1220530638BFBD
:1019B000704700F1010008BF20F0010070470000EF
:1019C0004FF47F0C1CEAD0121EBF1CEAD11392EA1E
:1019D0000C0F93EA0C0F00F0478090EA010F48BF0C
:1019E00042F480724FF0004C4CEA00204CEA012196
:1019F00002EB0302A0FB0113A2F50002002918BFAD
:101A000043F001035B0028BF4FEA330342EB22425D
:101A10005FEA132C4CEBC2502EBFBCEB436FB2F508
:101A20007C0F70474FEA036CBCF1004F08BF20F0F9
:101A30000100B2F57C0F38BF70470BD582F0FF0272
:101A400012F5803FC8BF704700F1C040D8BF00F01A
:101A50000040704700F5000C5FEA4C0C48BF70472F
:101A6000B0F1C04000F073B80CEAD11390EA010F56
:101A700048BF42F48072624538BF634504D280EAB1
:101A8000010000F00040704710B500F01AF800BFE8
:101A90008900013E00F007B800F009B85FEA410C88
:101AA0005FEA1C6C08D080EA010000F050B85FEAE1
:101AB000400C5FEA1C6CF6D14FF00040A0F58000AE
:101AC00070470EF1020E2EF0030E5EF8044B244216
:101AD00004D44FEA4102B2F17F4F11D84FEA4003DC
:101AE000B3F17F4F0CD80ED14FEAD07C0CEB4C0CED
:101AF0000CF1020CB2F17F4F08BF4CEBD17C04E03B
:101B00004FF0080C01E04FEAD17C0CEB4C0324FAB7
:101B100003F404F00704B4F1040C06D20EEB840CB9
:101B2000BDE810404CF0010C6047DFE80CF00708FE
:101B300002024FF00040A0F5800010BD08464200B0
:101B400018BFD2F1807288BF00F0004010BDFF21A5
:101B500041EAD050C005704790EA010F48BF81F0BC
:101B600000413FF5BEAE421A04D882F00042A0EB1D
:101B7000020011444FEAD052A2EBD1534FF07F4CF8
:101B80001CEA410F18BF9CEA026F4AD04FF0004C8C
:101B90004CEA00204CEA012121FA03FCB0EB0C0CCA
:101BA0000FD412F0FE0F36D05FEA4C001DD50012A4
:101BB00040EBC25038BF70471CF03F0F18BF704752
:101BC0000BE05FEA1C20A2F1010240EBC25038BFDB
:101BD00070471CF07F0F18BF7047C3F12003994076
:101BE00014BF401E20F0010070474FEA1223800806
:101BF00008BF7047B0FA80FCA2EB0C02CCF1280CB5
:101C000060FA0CF093EA122F04BF00EBC250704749
:101C10004FEAC3707047130A5FEADC1008BF7047D1
:101C2000F6E79CEA026F04D010EA5C0F08BF0020C0
:101C3000704710B5FFF745FF40DFF63E81F00040EA
:101C400070470000000000000000010203040607C6
:101C50000809010202030405060708090A0B0C0D16
:101C60000E0F1010881C000800000020100000005B
:101C70006C010008981C000810000020D806000025
:101C800088010008000000000100000010000000B2
:081C90000024F4000000000034
:0400000508000131BD
:00000001FF
